:060000000A128A11A42E71
:100D480083010A128A11A82E8030831603138700A4
:100D58008312031387018316031386012430980036
:100D68009030831203139800831603131815193053
:100D78009900831203131A08313A031DC42EC52E95
:100D8800C82E0F308600FC2F1A08323A031DCD2ECC
:100D9800CE2ED12E55308600FC2F1A08333A031D6B
:100DA800D62ED72EDA2EAA308600FC2F1A08343A0F
:100DB800031DDF2EE02EFE2EFF3086000630F200E7
:100DC8000E30F100B030F000F00BE82EF10BE82EF9
:100DD800F20BE82E8312031386010630F2000E3060
:100DE800F100B030F000F00BF72EF10BF72EF20BFC
:100DF800F72EFC2F831203131A08353A031D052F0B
:100E0800062FFC2F013086000630F2000E30F1006C
:100E1800B030F000F00B0E2FF10B0E2FF20B0E2F4F
:100E28008312031386010630F2000E30F100B03051
:100E3800F000F00B1D2FF10B1D2FF20B1D2F0230B0
:100E48008312031386000630F2000E30F100B03032
:100E5800F000F00B2D2FF10B2D2FF20B2D2F8312FD
:100E6800031386010630F2000E30F100B030F000B6
:100E7800F00B3C2FF10B3C2FF20B3C2F043083126C
:100E8800031386000630F2000E30F100B030F00097
:100E9800F00B4C2FF10B4C2FF20B4C2F831203133A
:100EA80086010630F2000E30F100B030F000F00B91
:100EB8005B2FF10B5B2FF20B5B2F083083120313B0
:100EC80086000630F2000E30F100B030F000F00B72
:100ED8006B2FF10B6B2FF20B6B2F83120313860111
:100EE8000630F2000E30F100B030F000F00B7A2F2F
:100EF800F10B7A2FF20B7A2F10308312031386002E
:100F08000630F2000E30F100B030F000F00B8A2FFE
:100F1800F10B8A2FF20B8A2F8312031386010630F6
:100F2800F2000E30F100B030F000F00B992FF10B09
:100F3800992FF20B992F2030831203138600063065
:100F4800F2000E30F100B030F000F00BA92FF10BD9
:100F5800A92FF20BA92F8312031386010630F20082
:100F68000E30F100B030F000F00BB82FF10BB82FB5
:100F7800F20BB82F40308312031386000630F200BC
:100F88000E30F100B030F000F00BC82FF10BC82F75
:100F9800F20BC82F8312031386010630F2000E30BD
:100FA800F100B030F000F00BD72FF10BD72FF20B78
:100FB800D72F80308312031386000630F2000E30DC
:100FC800F100B030F000F00BE72FF10BE72FF20B38
:100FD800E72F8312031386010630F2000E30F1006A
:100FE800B030F000F00BF62FF10BF62FF20BF62FC6
:080FF800BD2E0A128A11002827
:02400E00723FFF
:00000001FF
